{
  "contractName": "TasksContract",
  "abi": [
    {
      "inputs": [],
      "stateMutability": "nonpayable",
      "type": "constructor"
    },
    {
      "anonymous": false,
      "inputs": [
        {
          "indexed": false,
          "internalType": "uint256",
          "name": "id",
          "type": "uint256"
        },
        {
          "indexed": false,
          "internalType": "bool",
          "name": "done",
          "type": "bool"
        }
      ],
      "name": "TaskToggleDone",
      "type": "event"
    },
    {
      "inputs": [],
      "name": "id",
      "outputs": [
        {
          "internalType": "uint256",
          "name": "",
          "type": "uint256"
        }
      ],
      "stateMutability": "view",
      "type": "function",
      "constant": true
    },
    {
      "inputs": [
        {
          "internalType": "uint256",
          "name": "",
          "type": "uint256"
        }
      ],
      "name": "tasks",
      "outputs": [
        {
          "internalType": "uint256",
          "name": "id",
          "type": "uint256"
        },
        {
          "internalType": "string",
          "name": "title",
          "type": "string"
        },
        {
          "internalType": "string",
          "name": "description",
          "type": "string"
        },
        {
          "internalType": "bool",
          "name": "done",
          "type": "bool"
        },
        {
          "internalType": "uint256",
          "name": "createdAt",
          "type": "uint256"
        }
      ],
      "stateMutability": "view",
      "type": "function",
      "constant": true
    },
    {
      "inputs": [
        {
          "internalType": "string",
          "name": "_title",
          "type": "string"
        },
        {
          "internalType": "string",
          "name": "_description",
          "type": "string"
        }
      ],
      "name": "createTask",
      "outputs": [],
      "stateMutability": "nonpayable",
      "type": "function"
    },
    {
      "inputs": [
        {
          "internalType": "uint256",
          "name": "_id",
          "type": "uint256"
        }
      ],
      "name": "toggleDone",
      "outputs": [],
      "stateMutability": "nonpayable",
      "type": "function"
    }
  ],
  "bytecode": "0x6080604052600080553480156200001557600080fd5b50620000926040518060400160405280601081526020017f546172656120646520656a656d706c6f000000000000000000000000000000008152506040518060400160405280601681526020017f6465736372696363696f6e20646520656a656d706c6f000000000000000000008152506200009860201b60201c565b62000539565b600080815480929190620000ac9062000195565b91905055506040518060a00160405280600054815260200183815260200182815260200160001515815260200142815250600160008054815260200190815260200160002060008201518160000155602082015181600101908162000112919062000452565b5060408201518160020190816200012a919062000452565b5060608201518160030160006101000a81548160ff021916908315150217905550608082015181600401559050505050565b7f4e487b7100000000000000000000000000000000000000000000000000000000600052601160045260246000fd5b6000819050919050565b6000620001a2826200018b565b91507fffffffffffffffffffffffffffffffffffffffffffffffffffffffffffffffff8203620001d757620001d66200015c565b5b600182019050919050565b600081519050919050565b7f4e487b7100000000000000000000000000000000000000000000000000000000600052604160045260246000fd5b7f4e487b7100000000000000000000000000000000000000000000000000000000600052602260045260246000fd5b600060028204905060018216806200026457607f821691505b6020821081036200027a57620002796200021c565b5b50919050565b60008190508160005260206000209050919050565b60006020601f8301049050919050565b600082821b905092915050565b600060088302620002e47fffffffffffffffffffffffffffffffffffffffffffffffffffffffffffffffff82620002a5565b620002f08683620002a5565b95508019841693508086168417925050509392505050565b6000819050919050565b6000620003336200032d62000327846200018b565b62000308565b6200018b565b9050919050565b6000819050919050565b6200034f8362000312565b620003676200035e826200033a565b848454620002b2565b825550505050565b600090565b6200037e6200036f565b6200038b81848462000344565b505050565b5b81811015620003b357620003a760008262000374565b60018101905062000391565b5050565b601f8211156200040257620003cc8162000280565b620003d78462000295565b81016020851015620003e7578190505b620003ff620003f68562000295565b83018262000390565b50505b505050565b600082821c905092915050565b6000620004276000198460080262000407565b1980831691505092915050565b600062000442838362000414565b9150826002028217905092915050565b6200045d82620001e2565b67ffffffffffffffff811115620004795762000478620001ed565b5b6200048582546200024b565b62000492828285620003b7565b600060209050601f831160018114620004ca5760008415620004b5578287015190505b620004c1858262000434565b86555062000531565b601f198416620004da8662000280565b60005b828110156200050457848901518255600182019150602085019450602081019050620004dd565b8683101562000524578489015162000520601f89168262000414565b8355505b6001600288020188555050505b505050505050565b610c4280620005496000396000f3fe608060405234801561001057600080fd5b506004361061004c5760003560e01c8063292a4585146100515780638d9776721461006d578063af640d0f146100a1578063d81ef739146100bf575b600080fd5b61006b6004803603810190610066919061068e565b6100db565b005b6100876004803603810190610082919061073c565b610199565b604051610098959493929190610812565b60405180910390f35b6100a96102ec565b6040516100b69190610873565b60405180910390f35b6100d960048036038101906100d4919061073c565b6102f2565b005b6000808154809291906100ed906108bd565b91905055506040518060a0016040528060005481526020018381526020018281526020016000151581526020014281525060016000805481526020019081526020016000206000820151816000015560208201518160010190816101519190610b11565b5060408201518160020190816101679190610b11565b5060608201518160030160006101000a81548160ff021916908315150217905550608082015181600401559050505050565b60016020528060005260406000206000915090508060000154908060010180546101c290610934565b80601f01602080910402602001604051908101604052809291908181526020018280546101ee90610934565b801561023b5780601f106102105761010080835404028352916020019161023b565b820191906000526020600020905b81548152906001019060200180831161021e57829003601f168201915b50505050509080600201805461025090610934565b80601f016020809104026020016040519081016040528092919081815260200182805461027c90610934565b80156102c95780601f1061029e576101008083540402835291602001916102c9565b820191906000526020600020905b8154815290600101906020018083116102ac57829003601f168201915b5050505050908060030160009054906101000a900460ff16908060040154905085565b60005481565b6000600160008381526020019081526020016000206040518060a00160405290816000820154815260200160018201805461032c90610934565b80601f016020809104026020016040519081016040528092919081815260200182805461035890610934565b80156103a55780601f1061037a576101008083540402835291602001916103a5565b820191906000526020600020905b81548152906001019060200180831161038857829003601f168201915b505050505081526020016002820180546103be90610934565b80601f01602080910402602001604051908101604052809291908181526020018280546103ea90610934565b80156104375780601f1061040c57610100808354040283529160200191610437565b820191906000526020600020905b81548152906001019060200180831161041a57829003601f168201915b505050505081526020016003820160009054906101000a900460ff16151515158152602001600482015481525050905080606001511581606001901515908115158152505080600160008481526020019081526020016000206000820151816000015560208201518160010190816104af9190610b11565b5060408201518160020190816104c59190610b11565b5060608201518160030160006101000a81548160ff021916908315150217905550608082015181600401559050507f389dee00d487dd41dd5bf0f43eeaa5b663b3af022d52368df89d388150295f45828260600151604051610528929190610be3565b60405180910390a15050565b6000604051905090565b600080fd5b600080fd5b600080fd5b600080fd5b6000601f19601f8301169050919050565b7f4e487b7100000000000000000000000000000000000000000000000000000000600052604160045260246000fd5b61059b82610552565b810181811067ffffffffffffffff821117156105ba576105b9610563565b5b80604052505050565b60006105cd610534565b90506105d98282610592565b919050565b600067ffffffffffffffff8211156105f9576105f8610563565b5b61060282610552565b9050602081019050919050565b82818337600083830152505050565b600061063161062c846105de565b6105c3565b90508281526020810184848401111561064d5761064c61054d565b5b61065884828561060f565b509392505050565b600082601f83011261067557610674610548565b5b813561068584826020860161061e565b91505092915050565b600080604083850312156106a5576106a461053e565b5b600083013567ffffffffffffffff8111156106c3576106c2610543565b5b6106cf85828601610660565b925050602083013567ffffffffffffffff8111156106f0576106ef610543565b5b6106fc85828601610660565b9150509250929050565b6000819050919050565b61071981610706565b811461072457600080fd5b50565b60008135905061073681610710565b92915050565b6000602082840312156107525761075161053e565b5b600061076084828501610727565b91505092915050565b61077281610706565b82525050565b600081519050919050565b600082825260208201905092915050565b60005b838110156107b2578082015181840152602081019050610797565b60008484015250505050565b60006107c982610778565b6107d38185610783565b93506107e3818560208601610794565b6107ec81610552565b840191505092915050565b60008115159050919050565b61080c816107f7565b82525050565b600060a0820190506108276000830188610769565b818103602083015261083981876107be565b9050818103604083015261084d81866107be565b905061085c6060830185610803565b6108696080830184610769565b9695505050505050565b60006020820190506108886000830184610769565b92915050565b7f4e487b7100000000000000000000000000000000000000000000000000000000600052601160045260246000fd5b60006108c882610706565b91507fffffffffffffffffffffffffffffffffffffffffffffffffffffffffffffffff82036108fa576108f961088e565b5b600182019050919050565b7f4e487b7100000000000000000000000000000000000000000000000000000000600052602260045260246000fd5b6000600282049050600182168061094c57607f821691505b60208210810361095f5761095e610905565b5b50919050565b60008190508160005260206000209050919050565b60006020601f8301049050919050565b600082821b905092915050565b6000600883026109c77fffffffffffffffffffffffffffffffffffffffffffffffffffffffffffffffff8261098a565b6109d1868361098a565b95508019841693508086168417925050509392505050565b6000819050919050565b6000610a0e610a09610a0484610706565b6109e9565b610706565b9050919050565b6000819050919050565b610a28836109f3565b610a3c610a3482610a15565b848454610997565b825550505050565b600090565b610a51610a44565b610a5c818484610a1f565b505050565b5b81811015610a8057610a75600082610a49565b600181019050610a62565b5050565b601f821115610ac557610a9681610965565b610a9f8461097a565b81016020851015610aae578190505b610ac2610aba8561097a565b830182610a61565b50505b505050565b600082821c905092915050565b6000610ae860001984600802610aca565b1980831691505092915050565b6000610b018383610ad7565b9150826002028217905092915050565b610b1a82610778565b67ffffffffffffffff811115610b3357610b32610563565b5b610b3d8254610934565b610b48828285610a84565b600060209050601f831160018114610b7b5760008415610b69578287015190505b610b738582610af5565b865550610bdb565b601f198416610b8986610965565b60005b82811015610bb157848901518255600182019150602085019450602081019050610b8c565b86831015610bce5784890151610bca601f891682610ad7565b8355505b6001600288020188555050505b505050505050565b6000604082019050610bf86000830185610769565b610c056020830184610803565b939250505056fea26469706673582212203d49b0a8c88fe08323693a48a4952d9ef54c87fafab7cdf1b79e80d70bd87b7564736f6c63430008110033",
  "immutableReferences": {},
  "source": "// SPDX-License-Identifier: MIT\r\npragma solidity >=0.8.7 <0.9.0;\r\n\r\ncontract TasksContract {\r\n  constructor() {\r\n    createTask(\"Tarea de ejemplo\", \"descriccion de ejemplo\");\r\n  }\r\n\r\n  uint256 public id = 0;\r\n\r\n  event TaskToggleDone(uint256 id, bool done);\r\n\r\n  struct Task {\r\n    uint256 id;\r\n    string title;\r\n    string description;\r\n    bool done;\r\n    uint256 createdAt;\r\n  }\r\n\r\n  mapping(uint256 => Task) public tasks;\r\n\r\n  function createTask(string memory _title, string memory _description) public {\r\n    id++;\r\n    tasks[id] = Task(id, _title, _description, false, block.timestamp);\r\n  }\r\n\r\n  function toggleDone(uint256 _id) public {\r\n    Task memory _tasks = tasks[_id];\r\n    _tasks.done = !_tasks.done;\r\n    tasks[_id] = _tasks;\r\n    emit TaskToggleDone(_id, _tasks.done);\r\n  }\r\n}\r\n",
  "sourcePath": "D:\\Google Drive\\ZODI\\CODE\\CRYPTO\\ethereum-to-do-list\\contracts\\TasksContracts.sol",
  "compiler": {
    "name": "solc",
    "version": "0.8.17+commit.8df45f5f.Emscripten.clang"
  },
  "schemaVersion": "3.4.10",
  "updatedAt": "2022-09-30T21:56:03.455Z",
  "networkType": "ethereum",
  "devdoc": {
    "kind": "dev",
    "methods": {},
    "version": 1
  },
  "userdoc": {
    "kind": "user",
    "methods": {},
    "version": 1
  }
}