{
  "contractName": "TasksContract",
  "abi": [
    {
      "inputs": [],
      "stateMutability": "nonpayable",
      "type": "constructor"
    },
    {
      "inputs": [],
      "name": "id",
      "outputs": [
        {
          "internalType": "uint256",
          "name": "",
          "type": "uint256"
        }
      ],
      "stateMutability": "view",
      "type": "function",
      "constant": true
    },
    {
      "inputs": [
        {
          "internalType": "uint256",
          "name": "",
          "type": "uint256"
        }
      ],
      "name": "tasks",
      "outputs": [
        {
          "internalType": "uint256",
          "name": "id",
          "type": "uint256"
        },
        {
          "internalType": "string",
          "name": "title",
          "type": "string"
        },
        {
          "internalType": "string",
          "name": "description",
          "type": "string"
        },
        {
          "internalType": "bool",
          "name": "done",
          "type": "bool"
        },
        {
          "internalType": "uint256",
          "name": "createdAt",
          "type": "uint256"
        }
      ],
      "stateMutability": "view",
      "type": "function",
      "constant": true
    },
    {
      "inputs": [
        {
          "internalType": "string",
          "name": "_title",
          "type": "string"
        },
        {
          "internalType": "string",
          "name": "_description",
          "type": "string"
        }
      ],
      "name": "createTask",
      "outputs": [],
      "stateMutability": "nonpayable",
      "type": "function"
    },
    {
      "inputs": [
        {
          "internalType": "uint256",
          "name": "_id",
          "type": "uint256"
        }
      ],
      "name": "toggleDone",
      "outputs": [],
      "stateMutability": "nonpayable",
      "type": "function"
    }
  ],
  "bytecode": "0x6080604052600080553480156200001557600080fd5b50620000926040518060400160405280601081526020017f546172656120646520656a656d706c6f000000000000000000000000000000008152506040518060400160405280601681526020017f6465736372696363696f6e20646520656a656d706c6f000000000000000000008152506200009860201b60201c565b62000539565b6040518060a001604052806000548152602001838152602001828152602001600015158152602001428152506001600080548152602001908152602001600020600082015181600001556020820151816001019081620000f99190620003d6565b506040820151816002019081620001119190620003d6565b5060608201518160030160006101000a81548160ff021916908315150217905550608082015181600401559050506000808154809291906200015390620004ec565b91905055505050565b600081519050919050565b7f4e487b7100000000000000000000000000000000000000000000000000000000600052604160045260246000fd5b7f4e487b7100000000000000000000000000000000000000000000000000000000600052602260045260246000fd5b60006002820490506001821680620001de57607f821691505b602082108103620001f457620001f362000196565b5b50919050565b60008190508160005260206000209050919050565b60006020601f8301049050919050565b600082821b905092915050565b6000600883026200025e7fffffffffffffffffffffffffffffffffffffffffffffffffffffffffffffffff826200021f565b6200026a86836200021f565b95508019841693508086168417925050509392505050565b6000819050919050565b6000819050919050565b6000620002b7620002b1620002ab8462000282565b6200028c565b62000282565b9050919050565b6000819050919050565b620002d38362000296565b620002eb620002e282620002be565b8484546200022c565b825550505050565b600090565b62000302620002f3565b6200030f818484620002c8565b505050565b5b8181101562000337576200032b600082620002f8565b60018101905062000315565b5050565b601f82111562000386576200035081620001fa565b6200035b846200020f565b810160208510156200036b578190505b620003836200037a856200020f565b83018262000314565b50505b505050565b600082821c905092915050565b6000620003ab600019846008026200038b565b1980831691505092915050565b6000620003c6838362000398565b9150826002028217905092915050565b620003e1826200015c565b67ffffffffffffffff811115620003fd57620003fc62000167565b5b620004098254620001c5565b620004168282856200033b565b600060209050601f8311600181146200044e576000841562000439578287015190505b620004458582620003b8565b865550620004b5565b601f1984166200045e86620001fa565b60005b82811015620004885784890151825560018201915060208501945060208101905062000461565b86831015620004a85784890151620004a4601f89168262000398565b8355505b6001600288020188555050505b505050505050565b7f4e487b7100000000000000000000000000000000000000000000000000000000600052601160045260246000fd5b6000620004f98262000282565b91507fffffffffffffffffffffffffffffffffffffffffffffffffffffffffffffffff82036200052e576200052d620004bd565b5b600182019050919050565b610bdc80620005496000396000f3fe608060405234801561001057600080fd5b506004361061004c5760003560e01c8063292a4585146100515780638d9776721461006d578063af640d0f146100a1578063d81ef739146100bf575b600080fd5b61006b60048036038101906100669190610651565b6100db565b005b610087600480360381019061008291906106ff565b610199565b6040516100989594939291906107d5565b60405180910390f35b6100a96102ec565b6040516100b69190610836565b60405180910390f35b6100d960048036038101906100d491906106ff565b6102f2565b005b6040518060a00160405280600054815260200183815260200182815260200160001515815260200142815250600160008054815260200190815260200160002060008201518160000155602082015181600101908161013a9190610a5d565b5060408201518160020190816101509190610a5d565b5060608201518160030160006101000a81548160ff0219169083151502179055506080820151816004015590505060008081548092919061019090610b5e565b91905055505050565b60016020528060005260406000206000915090508060000154908060010180546101c290610880565b80601f01602080910402602001604051908101604052809291908181526020018280546101ee90610880565b801561023b5780601f106102105761010080835404028352916020019161023b565b820191906000526020600020905b81548152906001019060200180831161021e57829003601f168201915b50505050509080600201805461025090610880565b80601f016020809104026020016040519081016040528092919081815260200182805461027c90610880565b80156102c95780601f1061029e576101008083540402835291602001916102c9565b820191906000526020600020905b8154815290600101906020018083116102ac57829003601f168201915b5050505050908060030160009054906101000a900460ff16908060040154905085565b60005481565b6000600160008381526020019081526020016000206040518060a00160405290816000820154815260200160018201805461032c90610880565b80601f016020809104026020016040519081016040528092919081815260200182805461035890610880565b80156103a55780601f1061037a576101008083540402835291602001916103a5565b820191906000526020600020905b81548152906001019060200180831161038857829003601f168201915b505050505081526020016002820180546103be90610880565b80601f01602080910402602001604051908101604052809291908181526020018280546103ea90610880565b80156104375780601f1061040c57610100808354040283529160200191610437565b820191906000526020600020905b81548152906001019060200180831161041a57829003601f168201915b505050505081526020016003820160009054906101000a900460ff16151515158152602001600482015481525050905080606001511581606001901515908115158152505080600160008481526020019081526020016000206000820151816000015560208201518160010190816104af9190610a5d565b5060408201518160020190816104c59190610a5d565b5060608201518160030160006101000a81548160ff021916908315150217905550608082015181600401559050505050565b6000604051905090565b600080fd5b600080fd5b600080fd5b600080fd5b6000601f19601f8301169050919050565b7f4e487b7100000000000000000000000000000000000000000000000000000000600052604160045260246000fd5b61055e82610515565b810181811067ffffffffffffffff8211171561057d5761057c610526565b5b80604052505050565b60006105906104f7565b905061059c8282610555565b919050565b600067ffffffffffffffff8211156105bc576105bb610526565b5b6105c582610515565b9050602081019050919050565b82818337600083830152505050565b60006105f46105ef846105a1565b610586565b9050828152602081018484840111156106105761060f610510565b5b61061b8482856105d2565b509392505050565b600082601f8301126106385761063761050b565b5b81356106488482602086016105e1565b91505092915050565b6000806040838503121561066857610667610501565b5b600083013567ffffffffffffffff81111561068657610685610506565b5b61069285828601610623565b925050602083013567ffffffffffffffff8111156106b3576106b2610506565b5b6106bf85828601610623565b9150509250929050565b6000819050919050565b6106dc816106c9565b81146106e757600080fd5b50565b6000813590506106f9816106d3565b92915050565b60006020828403121561071557610714610501565b5b6000610723848285016106ea565b91505092915050565b610735816106c9565b82525050565b600081519050919050565b600082825260208201905092915050565b60005b8381101561077557808201518184015260208101905061075a565b60008484015250505050565b600061078c8261073b565b6107968185610746565b93506107a6818560208601610757565b6107af81610515565b840191505092915050565b60008115159050919050565b6107cf816107ba565b82525050565b600060a0820190506107ea600083018861072c565b81810360208301526107fc8187610781565b905081810360408301526108108186610781565b905061081f60608301856107c6565b61082c608083018461072c565b9695505050505050565b600060208201905061084b600083018461072c565b92915050565b7f4e487b7100000000000000000000000000000000000000000000000000000000600052602260045260246000fd5b6000600282049050600182168061089857607f821691505b6020821081036108ab576108aa610851565b5b50919050565b60008190508160005260206000209050919050565b60006020601f8301049050919050565b600082821b905092915050565b6000600883026109137fffffffffffffffffffffffffffffffffffffffffffffffffffffffffffffffff826108d6565b61091d86836108d6565b95508019841693508086168417925050509392505050565b6000819050919050565b600061095a610955610950846106c9565b610935565b6106c9565b9050919050565b6000819050919050565b6109748361093f565b61098861098082610961565b8484546108e3565b825550505050565b600090565b61099d610990565b6109a881848461096b565b505050565b5b818110156109cc576109c1600082610995565b6001810190506109ae565b5050565b601f821115610a11576109e2816108b1565b6109eb846108c6565b810160208510156109fa578190505b610a0e610a06856108c6565b8301826109ad565b50505b505050565b600082821c905092915050565b6000610a3460001984600802610a16565b1980831691505092915050565b6000610a4d8383610a23565b9150826002028217905092915050565b610a668261073b565b67ffffffffffffffff811115610a7f57610a7e610526565b5b610a898254610880565b610a948282856109d0565b600060209050601f831160018114610ac75760008415610ab5578287015190505b610abf8582610a41565b865550610b27565b601f198416610ad5866108b1565b60005b82811015610afd57848901518255600182019150602085019450602081019050610ad8565b86831015610b1a5784890151610b16601f891682610a23565b8355505b6001600288020188555050505b505050505050565b7f4e487b7100000000000000000000000000000000000000000000000000000000600052601160045260246000fd5b6000610b69826106c9565b91507fffffffffffffffffffffffffffffffffffffffffffffffffffffffffffffffff8203610b9b57610b9a610b2f565b5b60018201905091905056fea26469706673582212207a0815ff6f9257f6f6b2b0ac04f40c6290902b998d41acbf98e218f53cd8681864736f6c63430008110033",
  "immutableReferences": {},
  "source": "// SPDX-License-Identifier: MIT\r\npragma solidity >=0.8.7 <0.9.0;\r\n\r\ncontract TasksContract {\r\n  constructor() {\r\n    createTask(\"Tarea de ejemplo\", \"descriccion de ejemplo\");\r\n  }\r\n\r\n  uint256 public id = 0;\r\n\r\n  struct Task {\r\n    uint256 id;\r\n    string title;\r\n    string description;\r\n    bool done;\r\n    uint256 createdAt;\r\n  }\r\n\r\n  mapping(uint256 => Task) public tasks;\r\n\r\n  function createTask(string memory _title, string memory _description) public {\r\n    tasks[id] = Task(id, _title, _description, false, block.timestamp);\r\n    id++;\r\n  }\r\n\r\n  function toggleDone(uint256 _id) public {\r\n    Task memory _tasks = tasks[_id];\r\n    _tasks.done = !_tasks.done;\r\n    tasks[_id] = _tasks;\r\n  }\r\n}\r\n",
  "sourcePath": "D:\\Google Drive\\ZODI\\CODE\\CRYPTO\\ethereum-to-do-list\\contracts\\TasksContracts.sol",
  "compiler": {
    "name": "solc",
    "version": "0.8.17+commit.8df45f5f.Emscripten.clang"
  },
  "schemaVersion": "3.4.10",
  "updatedAt": "2022-09-29T01:23:14.924Z",
  "networkType": "ethereum",
  "devdoc": {
    "kind": "dev",
    "methods": {},
    "version": 1
  },
  "userdoc": {
    "kind": "user",
    "methods": {},
    "version": 1
  }
}